{
  "contractName": "Prueba",
  "abi": [
    {
      "constant": false,
      "inputs": [
        {
          "internalType": "uint256",
          "name": "x",
          "type": "uint256"
        },
        {
          "internalType": "string",
          "name": "a",
          "type": "string"
        },
        {
          "internalType": "string",
          "name": "b",
          "type": "string"
        },
        {
          "internalType": "string",
          "name": "c",
          "type": "string"
        }
      ],
      "name": "set",
      "outputs": [],
      "payable": false,
      "stateMutability": "nonpayable",
      "type": "function"
    },
    {
      "constant": true,
      "inputs": [],
      "name": "getCantidad",
      "outputs": [
        {
          "internalType": "uint256",
          "name": "",
          "type": "uint256"
        }
      ],
      "payable": false,
      "stateMutability": "view",
      "type": "function"
    },
    {
      "constant": true,
      "inputs": [],
      "name": "getNombre",
      "outputs": [
        {
          "internalType": "string",
          "name": "",
          "type": "string"
        }
      ],
      "payable": false,
      "stateMutability": "view",
      "type": "function"
    },
    {
      "constant": true,
      "inputs": [],
      "name": "getCuenta1",
      "outputs": [
        {
          "internalType": "string",
          "name": "",
          "type": "string"
        }
      ],
      "payable": false,
      "stateMutability": "view",
      "type": "function"
    },
    {
      "constant": true,
      "inputs": [],
      "name": "getCuenta2",
      "outputs": [
        {
          "internalType": "string",
          "name": "",
          "type": "string"
        }
      ],
      "payable": false,
      "stateMutability": "view",
      "type": "function"
    }
  ],
  "bytecode": "0x608060405234801561001057600080fd5b5061052f806100206000396000f3fe608060405234801561001057600080fd5b50600436106100575760003560e01c806303a2d8d71461005c578063769745831461007657806385b5d371146100f3578063d75cbf9b146100fb578063fbd58f4314610103575b600080fd5b6100646102c0565b60408051918252519081900360200190f35b61007e6102c7565b6040805160208082528351818301528351919283929083019185019080838360005b838110156100b85781810151838201526020016100a0565b50505050905090810190601f1680156100e55780820380516001836020036101000a031916815260200191505b509250505060405180910390f35b61007e61035a565b61007e6103bb565b6102be6004803603608081101561011957600080fd5b8135919081019060408101602082013564010000000081111561013b57600080fd5b82018360208201111561014d57600080fd5b8035906020019184600183028401116401000000008311171561016f57600080fd5b91908080601f01602080910402602001604051908101604052809392919081815260200183838082843760009201919091525092959493602081019350359150506401000000008111156101c257600080fd5b8201836020820111156101d457600080fd5b803590602001918460018302840111640100000000831117156101f657600080fd5b91908080601f016020809104026020016040519081016040528093929190818152602001838380828437600092019190915250929594936020810193503591505064010000000081111561024957600080fd5b82018360208201111561025b57600080fd5b8035906020019184600183028401116401000000008311171561027d57600080fd5b91908080601f01602080910402602001604051908101604052809392919081815260200183838082843760009201919091525092955061041b945050505050565b005b6000545b90565b60028054604080516020601f60001961010060018716150201909416859004938401819004810282018101909252828152606093909290918301828280156103505780601f1061032557610100808354040283529160200191610350565b820191906000526020600020905b81548152906001019060200180831161033357829003601f168201915b5050505050905090565b60038054604080516020601f60026000196101006001881615020190951694909404938401819004810282018101909252828152606093909290918301828280156103505780601f1061032557610100808354040283529160200191610350565b60018054604080516020601f600260001961010087891615020190951694909404938401819004810282018101909252828152606093909290918301828280156103505780601f1061032557610100808354040283529160200191610350565b60008490558251610433906001906020860190610462565b508151610447906002906020850190610462565b50805161045b906003906020840190610462565b5050505050565b828054600181600116156101000203166002900490600052602060002090601f016020900481019282601f106104a357805160ff19168380011785556104d0565b828001600101855582156104d0579182015b828111156104d05782518255916020019190600101906104b5565b506104dc9291506104e0565b5090565b6102c491905b808211156104dc57600081556001016104e656fea265627a7a72315820e40d1d77a3b99a01b313d4ea1403e2e12b8b8b6150408a3fba21af11fdef9e5264736f6c63430005100032",
  "source": "// SPDX-License-Identifier: MIT\r\npragma solidity >=0.4.22 <0.9.0;\r\n\r\ncontract Prueba {\r\n    uint256 cantidad;\r\n    string nombre;\r\n    string cuenta1;\r\n    string cuenta2;\r\n\r\n    function set(uint256 x, string memory a, string memory b, string memory c) public {\r\n        cantidad = x;\r\n        nombre = a;\r\n        cuenta1 = b;\r\n        cuenta2 = c;\r\n    }\r\n\r\n    function getCantidad() public view returns (uint256) {\r\n        return cantidad;\r\n    }\r\n\r\n    function getNombre() public view returns (string memory) {\r\n        return nombre;\r\n    }\r\n\r\n    function getCuenta1() public view returns (string memory) {\r\n        return cuenta1;\r\n    }\r\n\r\n    function getCuenta2() public view returns (string memory) {\r\n        return cuenta2;\r\n    }\r\n}\r\n",
  "sourcePath": "C:/Users/GL 502V2/Desktop/ReactDapp/Blockchain/contracts/Prueba.sol",
  "compiler": {
    "name": "solc",
    "version": "0.5.16+commit.9c3226ce.Emscripten.clang"
  },
  "schemaVersion": "3.4.1",
  "updatedAt": "2021-06-27T10:20:32.707Z",
  "networkType": "ethereum",
  "devdoc": {
    "methods": {}
  },
  "userdoc": {
    "methods": {}
  }
}